{
  "contractName": "Election",
  "abi": [
    {
      "anonymous": false,
      "inputs": [
        {
          "indexed": false,
          "internalType": "string",
          "name": "candidateName",
          "type": "string"
        }
      ],
      "name": "VoteCast",
      "type": "event"
    },
    {
      "inputs": [
        {
          "internalType": "uint256",
          "name": "",
          "type": "uint256"
        }
      ],
      "name": "candidateList",
      "outputs": [
        {
          "internalType": "string",
          "name": "name",
          "type": "string"
        },
        {
          "internalType": "uint256",
          "name": "citizenshipNo",
          "type": "uint256"
        },
        {
          "internalType": "uint256",
          "name": "age",
          "type": "uint256"
        },
        {
          "internalType": "string",
          "name": "agenda",
          "type": "string"
        },
        {
          "internalType": "string",
          "name": "dob",
          "type": "string"
        },
        {
          "internalType": "string",
          "name": "address_name",
          "type": "string"
        },
        {
          "internalType": "string",
          "name": "email",
          "type": "string"
        },
        {
          "internalType": "string",
          "name": "profile",
          "type": "string"
        },
        {
          "internalType": "string",
          "name": "partyName",
          "type": "string"
        },
        {
          "internalType": "uint256",
          "name": "voteCount",
          "type": "uint256"
        }
      ],
      "stateMutability": "view",
      "type": "function"
    },
    {
      "inputs": [
        {
          "internalType": "uint256",
          "name": "",
          "type": "uint256"
        }
      ],
      "name": "candidateNames",
      "outputs": [
        {
          "internalType": "string",
          "name": "",
          "type": "string"
        }
      ],
      "stateMutability": "view",
      "type": "function"
    },
    {
      "inputs": [
        {
          "internalType": "string",
          "name": "",
          "type": "string"
        }
      ],
      "name": "candidates",
      "outputs": [
        {
          "internalType": "string",
          "name": "name",
          "type": "string"
        },
        {
          "internalType": "uint256",
          "name": "citizenshipNo",
          "type": "uint256"
        },
        {
          "internalType": "uint256",
          "name": "age",
          "type": "uint256"
        },
        {
          "internalType": "string",
          "name": "agenda",
          "type": "string"
        },
        {
          "internalType": "string",
          "name": "dob",
          "type": "string"
        },
        {
          "internalType": "string",
          "name": "address_name",
          "type": "string"
        },
        {
          "internalType": "string",
          "name": "email",
          "type": "string"
        },
        {
          "internalType": "string",
          "name": "profile",
          "type": "string"
        },
        {
          "internalType": "string",
          "name": "partyName",
          "type": "string"
        },
        {
          "internalType": "uint256",
          "name": "voteCount",
          "type": "uint256"
        }
      ],
      "stateMutability": "view",
      "type": "function"
    },
    {
      "inputs": [],
      "name": "totalCandidate",
      "outputs": [
        {
          "internalType": "uint256",
          "name": "",
          "type": "uint256"
        }
      ],
      "stateMutability": "view",
      "type": "function"
    },
    {
      "inputs": [],
      "name": "totalVoter",
      "outputs": [
        {
          "internalType": "uint256",
          "name": "",
          "type": "uint256"
        }
      ],
      "stateMutability": "view",
      "type": "function"
    },
    {
      "inputs": [],
      "name": "voteCount",
      "outputs": [
        {
          "internalType": "uint256",
          "name": "",
          "type": "uint256"
        }
      ],
      "stateMutability": "view",
      "type": "function"
    },
    {
      "inputs": [
        {
          "internalType": "uint256",
          "name": "",
          "type": "uint256"
        }
      ],
      "name": "voterList",
      "outputs": [
        {
          "internalType": "string",
          "name": "name",
          "type": "string"
        },
        {
          "internalType": "uint256",
          "name": "citizenshipNo",
          "type": "uint256"
        },
        {
          "internalType": "uint256",
          "name": "age",
          "type": "uint256"
        },
        {
          "internalType": "string",
          "name": "agenda",
          "type": "string"
        },
        {
          "internalType": "string",
          "name": "dob",
          "type": "string"
        },
        {
          "internalType": "string",
          "name": "address_name",
          "type": "string"
        },
        {
          "internalType": "string",
          "name": "email",
          "type": "string"
        },
        {
          "internalType": "string",
          "name": "profile",
          "type": "string"
        },
        {
          "internalType": "bool",
          "name": "voted",
          "type": "bool"
        }
      ],
      "stateMutability": "view",
      "type": "function"
    },
    {
      "inputs": [
        {
          "internalType": "uint256",
          "name": "",
          "type": "uint256"
        }
      ],
      "name": "voterNames",
      "outputs": [
        {
          "internalType": "string",
          "name": "",
          "type": "string"
        }
      ],
      "stateMutability": "view",
      "type": "function"
    },
    {
      "inputs": [
        {
          "internalType": "string",
          "name": "",
          "type": "string"
        }
      ],
      "name": "voters",
      "outputs": [
        {
          "internalType": "string",
          "name": "name",
          "type": "string"
        },
        {
          "internalType": "uint256",
          "name": "citizenshipNo",
          "type": "uint256"
        },
        {
          "internalType": "uint256",
          "name": "age",
          "type": "uint256"
        },
        {
          "internalType": "string",
          "name": "agenda",
          "type": "string"
        },
        {
          "internalType": "string",
          "name": "dob",
          "type": "string"
        },
        {
          "internalType": "string",
          "name": "address_name",
          "type": "string"
        },
        {
          "internalType": "string",
          "name": "email",
          "type": "string"
        },
        {
          "internalType": "string",
          "name": "profile",
          "type": "string"
        },
        {
          "internalType": "bool",
          "name": "voted",
          "type": "bool"
        }
      ],
      "stateMutability": "view",
      "type": "function"
    },
    {
      "inputs": [
        {
          "internalType": "string",
          "name": "candidateName",
          "type": "string"
        }
      ],
      "name": "vote",
      "outputs": [],
      "stateMutability": "nonpayable",
      "type": "function"
    },
    {
      "inputs": [
        {
          "internalType": "string",
          "name": "_name",
          "type": "string"
        },
        {
          "internalType": "uint256",
          "name": "_citizenshipNo",
          "type": "uint256"
        },
        {
          "internalType": "uint256",
          "name": "_age",
          "type": "uint256"
        },
        {
          "internalType": "string",
          "name": "_agenda",
          "type": "string"
        },
        {
          "internalType": "string",
          "name": "_dob",
          "type": "string"
        },
        {
          "internalType": "string",
          "name": "_address",
          "type": "string"
        },
        {
          "internalType": "string",
          "name": "_email",
          "type": "string"
        },
        {
          "internalType": "string",
          "name": "_profile",
          "type": "string"
        },
        {
          "internalType": "string",
          "name": "_partyName",
          "type": "string"
        }
      ],
      "name": "addCandidate",
      "outputs": [],
      "stateMutability": "nonpayable",
      "type": "function"
    },
    {
      "inputs": [
        {
          "internalType": "string",
          "name": "_name",
          "type": "string"
        },
        {
          "internalType": "uint256",
          "name": "_citizenshipNo",
          "type": "uint256"
        },
        {
          "internalType": "uint256",
          "name": "_age",
          "type": "uint256"
        },
        {
          "internalType": "string",
          "name": "_agenda",
          "type": "string"
        },
        {
          "internalType": "string",
          "name": "_dob",
          "type": "string"
        },
        {
          "internalType": "string",
          "name": "_address",
          "type": "string"
        },
        {
          "internalType": "string",
          "name": "_email",
          "type": "string"
        },
        {
          "internalType": "string",
          "name": "_profile",
          "type": "string"
        }
      ],
      "name": "addVoter",
      "outputs": [],
      "stateMutability": "nonpayable",
      "type": "function"
    },
    {
      "inputs": [],
      "name": "getAllCandidates",
      "outputs": [
        {
          "components": [
            {
              "internalType": "string",
              "name": "name",
              "type": "string"
            },
            {
              "internalType": "uint256",
              "name": "citizenshipNo",
              "type": "uint256"
            },
            {
              "internalType": "uint256",
              "name": "age",
              "type": "uint256"
            },
            {
              "internalType": "string",
              "name": "agenda",
              "type": "string"
            },
            {
              "internalType": "string",
              "name": "dob",
              "type": "string"
            },
            {
              "internalType": "string",
              "name": "address_name",
              "type": "string"
            },
            {
              "internalType": "string",
              "name": "email",
              "type": "string"
            },
            {
              "internalType": "string",
              "name": "profile",
              "type": "string"
            },
            {
              "internalType": "string",
              "name": "partyName",
              "type": "string"
            },
            {
              "internalType": "uint256",
              "name": "voteCount",
              "type": "uint256"
            }
          ],
          "internalType": "struct Structure.Candidate[]",
          "name": "",
          "type": "tuple[]"
        }
      ],
      "stateMutability": "view",
      "type": "function"
    },
    {
      "inputs": [],
      "name": "getAllVoters",
      "outputs": [
        {
          "components": [
            {
              "internalType": "string",
              "name": "name",
              "type": "string"
            },
            {
              "internalType": "uint256",
              "name": "citizenshipNo",
              "type": "uint256"
            },
            {
              "internalType": "uint256",
              "name": "age",
              "type": "uint256"
            },
            {
              "internalType": "string",
              "name": "agenda",
              "type": "string"
            },
            {
              "internalType": "string",
              "name": "dob",
              "type": "string"
            },
            {
              "internalType": "string",
              "name": "address_name",
              "type": "string"
            },
            {
              "internalType": "string",
              "name": "email",
              "type": "string"
            },
            {
              "internalType": "string",
              "name": "profile",
              "type": "string"
            },
            {
              "internalType": "bool",
              "name": "voted",
              "type": "bool"
            }
          ],
          "internalType": "struct Structure.Voter[]",
          "name": "",
          "type": "tuple[]"
        }
      ],
      "stateMutability": "view",
      "type": "function"
    },
    {
      "inputs": [
        {
          "internalType": "string",
          "name": "name",
          "type": "string"
        }
      ],
      "name": "getCandidateDetails",
      "outputs": [
        {
          "components": [
            {
              "internalType": "string",
              "name": "name",
              "type": "string"
            },
            {
              "internalType": "uint256",
              "name": "citizenshipNo",
              "type": "uint256"
            },
            {
              "internalType": "uint256",
              "name": "age",
              "type": "uint256"
            },
            {
              "internalType": "string",
              "name": "agenda",
              "type": "string"
            },
            {
              "internalType": "string",
              "name": "dob",
              "type": "string"
            },
            {
              "internalType": "string",
              "name": "address_name",
              "type": "string"
            },
            {
              "internalType": "string",
              "name": "email",
              "type": "string"
            },
            {
              "internalType": "string",
              "name": "profile",
              "type": "string"
            },
            {
              "internalType": "string",
              "name": "partyName",
              "type": "string"
            },
            {
              "internalType": "uint256",
              "name": "voteCount",
              "type": "uint256"
            }
          ],
          "internalType": "struct Structure.Candidate",
          "name": "",
          "type": "tuple"
        }
      ],
      "stateMutability": "view",
      "type": "function"
    },
    {
      "inputs": [
        {
          "internalType": "string",
          "name": "name",
          "type": "string"
        }
      ],
      "name": "getVoterDetails",
      "outputs": [
        {
          "components": [
            {
              "internalType": "string",
              "name": "name",
              "type": "string"
            },
            {
              "internalType": "uint256",
              "name": "citizenshipNo",
              "type": "uint256"
            },
            {
              "internalType": "uint256",
              "name": "age",
              "type": "uint256"
            },
            {
              "internalType": "string",
              "name": "agenda",
              "type": "string"
            },
            {
              "internalType": "string",
              "name": "dob",
              "type": "string"
            },
            {
              "internalType": "string",
              "name": "address_name",
              "type": "string"
            },
            {
              "internalType": "string",
              "name": "email",
              "type": "string"
            },
            {
              "internalType": "string",
              "name": "profile",
              "type": "string"
            },
            {
              "internalType": "bool",
              "name": "voted",
              "type": "bool"
            }
          ],
          "internalType": "struct Structure.Voter",
          "name": "",
          "type": "tuple"
        }
      ],
      "stateMutability": "view",
      "type": "function"
    }
  ],
  "bytecode": "0x60806040526000600655600060075534801561001a57600080fd5b50613ce28061002a6000396000f3fe608060405234801561001057600080fd5b50600436106101005760003560e01c80636a4b98e911610097578063b13c744b11610066578063b13c744b146102e5578063c5539cc21461031e578063c638407114610357578063fc36e15b1461037557610100565b80636a4b98e91461023957806376874a7d146102555780638287e42f14610285578063a96278ae146102b557610100565b806350e2e8af116100d357806350e2e8af1461018f57806353fa2e64146101c75780635efe69ab146101ff5780636332abc91461021b57610100565b80630c275aeb146101055780631812dab4146101355780632e6997fe1461015357806335bbe70e14610171575b600080fd5b61011f600480360381019061011a9190612c9b565b610391565b60405161012c9190612e80565b60405180910390f35b61013d6107e6565b60405161014a9190612eb1565b60405180910390f35b61015b6107ec565b6040516101689190613092565b60405180910390f35b610179610c68565b6040516101869190613279565b60405180910390f35b6101a960048036038101906101a491906132c7565b611063565b6040516101be9998979695949392919061334d565b60405180910390f35b6101e160048036038101906101dc9190612c9b565b6113fe565b6040516101f69998979695949392919061334d565b60405180910390f35b61021960048036038101906102149190613404565b61179f565b005b6102236119fe565b6040516102309190612eb1565b60405180910390f35b610253600480360381019061024e9190613562565b611a04565b005b61026f600480360381019061026a9190612c9b565b611c6a565b60405161027c91906137d8565b60405180910390f35b61029f600480360381019061029a91906132c7565b61203e565b6040516102ac91906137fa565b60405180910390f35b6102cf60048036038101906102ca91906132c7565b6120ea565b6040516102dc91906137fa565b60405180910390f35b6102ff60048036038101906102fa91906132c7565b612196565b6040516103159a9998979695949392919061381c565b60405180910390f35b61033860048036038101906103339190612c9b565b6125b2565b60405161034e9a9998979695949392919061381c565b60405180910390f35b61035f6129d4565b60405161036c9190612eb1565b60405180910390f35b61038f600480360381019061038a9190612c9b565b6129da565b005b610399612aa0565b6000826040516103a99190613925565b9081526020016040518091039020604051806101400160405290816000820180546103d39061396b565b80601f01602080910402602001604051908101604052809291908181526020018280546103ff9061396b565b801561044c5780601f106104215761010080835404028352916020019161044c565b820191906000526020600020905b81548152906001019060200180831161042f57829003601f168201915b5050505050815260200160018201548152602001600282015481526020016003820180546104799061396b565b80601f01602080910402602001604051908101604052809291908181526020018280546104a59061396b565b80156104f25780601f106104c7576101008083540402835291602001916104f2565b820191906000526020600020905b8154815290600101906020018083116104d557829003601f168201915b5050505050815260200160048201805461050b9061396b565b80601f01602080910402602001604051908101604052809291908181526020018280546105379061396b565b80156105845780601f1061055957610100808354040283529160200191610584565b820191906000526020600020905b81548152906001019060200180831161056757829003601f168201915b5050505050815260200160058201805461059d9061396b565b80601f01602080910402602001604051908101604052809291908181526020018280546105c99061396b565b80156106165780601f106105eb57610100808354040283529160200191610616565b820191906000526020600020905b8154815290600101906020018083116105f957829003601f168201915b5050505050815260200160068201805461062f9061396b565b80601f016020809104026020016040519081016040528092919081815260200182805461065b9061396b565b80156106a85780601f1061067d576101008083540402835291602001916106a8565b820191906000526020600020905b81548152906001019060200180831161068b57829003601f168201915b505050505081526020016007820180546106c19061396b565b80601f01602080910402602001604051908101604052809291908181526020018280546106ed9061396b565b801561073a5780601f1061070f5761010080835404028352916020019161073a565b820191906000526020600020905b81548152906001019060200180831161071d57829003601f168201915b505050505081526020016008820180546107539061396b565b80601f016020809104026020016040519081016040528092919081815260200182805461077f9061396b565b80156107cc5780601f106107a1576101008083540402835291602001916107cc565b820191906000526020600020905b8154815290600101906020018083116107af57829003601f168201915b505050505081526020016009820154815250509050919050565b60065481565b60606002805480602002602001604051908101604052809291908181526020016000905b82821015610c5f57838290600052602060002090600a0201604051806101400160405290816000820180546108449061396b565b80601f01602080910402602001604051908101604052809291908181526020018280546108709061396b565b80156108bd5780601f10610892576101008083540402835291602001916108bd565b820191906000526020600020905b8154815290600101906020018083116108a057829003601f168201915b5050505050815260200160018201548152602001600282015481526020016003820180546108ea9061396b565b80601f01602080910402602001604051908101604052809291908181526020018280546109169061396b565b80156109635780601f1061093857610100808354040283529160200191610963565b820191906000526020600020905b81548152906001019060200180831161094657829003601f168201915b5050505050815260200160048201805461097c9061396b565b80601f01602080910402602001604051908101604052809291908181526020018280546109a89061396b565b80156109f55780601f106109ca576101008083540402835291602001916109f5565b820191906000526020600020905b8154815290600101906020018083116109d857829003601f168201915b50505050508152602001600582018054610a0e9061396b565b80601f0160208091040260200160405190810160405280929190818152602001828054610a3a9061396b565b8015610a875780601f10610a5c57610100808354040283529160200191610a87565b820191906000526020600020905b815481529060010190602001808311610a6a57829003601f168201915b50505050508152602001600682018054610aa09061396b565b80601f0160208091040260200160405190810160405280929190818152602001828054610acc9061396b565b8015610b195780601f10610aee57610100808354040283529160200191610b19565b820191906000526020600020905b815481529060010190602001808311610afc57829003601f168201915b50505050508152602001600782018054610b329061396b565b80601f0160208091040260200160405190810160405280929190818152602001828054610b5e9061396b565b8015610bab5780601f10610b8057610100808354040283529160200191610bab565b820191906000526020600020905b815481529060010190602001808311610b8e57829003601f168201915b50505050508152602001600882018054610bc49061396b565b80601f0160208091040260200160405190810160405280929190818152602001828054610bf09061396b565b8015610c3d5780601f10610c1257610100808354040283529160200191610c3d565b820191906000526020600020905b815481529060010190602001808311610c2057829003601f168201915b5050505050815260200160098201548152505081526020019060010190610810565b50505050905090565b60606003805480602002602001604051908101604052809291908181526020016000905b8282101561105a578382906000526020600020906009020160405180610120016040529081600082018054610cc09061396b565b80601f0160208091040260200160405190810160405280929190818152602001828054610cec9061396b565b8015610d395780601f10610d0e57610100808354040283529160200191610d39565b820191906000526020600020905b815481529060010190602001808311610d1c57829003601f168201915b505050505081526020016001820154815260200160028201548152602001600382018054610d669061396b565b80601f0160208091040260200160405190810160405280929190818152602001828054610d929061396b565b8015610ddf5780601f10610db457610100808354040283529160200191610ddf565b820191906000526020600020905b815481529060010190602001808311610dc257829003601f168201915b50505050508152602001600482018054610df89061396b565b80601f0160208091040260200160405190810160405280929190818152602001828054610e249061396b565b8015610e715780601f10610e4657610100808354040283529160200191610e71565b820191906000526020600020905b815481529060010190602001808311610e5457829003601f168201915b50505050508152602001600582018054610e8a9061396b565b80601f0160208091040260200160405190810160405280929190818152602001828054610eb69061396b565b8015610f035780601f10610ed857610100808354040283529160200191610f03565b820191906000526020600020905b815481529060010190602001808311610ee657829003601f168201915b50505050508152602001600682018054610f1c9061396b565b80601f0160208091040260200160405190810160405280929190818152602001828054610f489061396b565b8015610f955780601f10610f6a57610100808354040283529160200191610f95565b820191906000526020600020905b815481529060010190602001808311610f7857829003601f168201915b50505050508152602001600782018054610fae9061396b565b80601f0160208091040260200160405190810160405280929190818152602001828054610fda9061396b565b80156110275780601f10610ffc57610100808354040283529160200191611027565b820191906000526020600020905b81548152906001019060200180831161100a57829003601f168201915b505050505081526020016008820160009054906101000a900460ff16151515158152505081526020019060010190610c8c565b50505050905090565b6003818154811061107357600080fd5b90600052602060002090600902016000915090508060000180546110969061396b565b80601f01602080910402602001604051908101604052809291908181526020018280546110c29061396b565b801561110f5780601f106110e45761010080835404028352916020019161110f565b820191906000526020600020905b8154815290600101906020018083116110f257829003601f168201915b5050505050908060010154908060020154908060030180546111309061396b565b80601f016020809104026020016040519081016040528092919081815260200182805461115c9061396b565b80156111a95780601f1061117e576101008083540402835291602001916111a9565b820191906000526020600020905b81548152906001019060200180831161118c57829003601f168201915b5050505050908060040180546111be9061396b565b80601f01602080910402602001604051908101604052809291908181526020018280546111ea9061396b565b80156112375780601f1061120c57610100808354040283529160200191611237565b820191906000526020600020905b81548152906001019060200180831161121a57829003601f168201915b50505050509080600501805461124c9061396b565b80601f01602080910402602001604051908101604052809291908181526020018280546112789061396b565b80156112c55780601f1061129a576101008083540402835291602001916112c5565b820191906000526020600020905b8154815290600101906020018083116112a857829003601f168201915b5050505050908060060180546112da9061396b565b80601f01602080910402602001604051908101604052809291908181526020018280546113069061396b565b80156113535780601f1061132857610100808354040283529160200191611353565b820191906000526020600020905b81548152906001019060200180831161133657829003601f168201915b5050505050908060070180546113689061396b565b80601f01602080910402602001604051908101604052809291908181526020018280546113949061396b565b80156113e15780601f106113b6576101008083540402835291602001916113e1565b820191906000526020600020905b8154815290600101906020018083116113c457829003601f168201915b5050505050908060080160009054906101000a900460ff16905089565b6001818051602081018201805184825260208301602085012081835280955050505050506000915090508060000180546114379061396b565b80601f01602080910402602001604051908101604052809291908181526020018280546114639061396b565b80156114b05780601f10611485576101008083540402835291602001916114b0565b820191906000526020600020905b81548152906001019060200180831161149357829003601f168201915b5050505050908060010154908060020154908060030180546114d19061396b565b80601f01602080910402602001604051908101604052809291908181526020018280546114fd9061396b565b801561154a5780601f1061151f5761010080835404028352916020019161154a565b820191906000526020600020905b81548152906001019060200180831161152d57829003601f168201915b50505050509080600401805461155f9061396b565b80601f016020809104026020016040519081016040528092919081815260200182805461158b9061396b565b80156115d85780601f106115ad576101008083540402835291602001916115d8565b820191906000526020600020905b8154815290600101906020018083116115bb57829003601f168201915b5050505050908060050180546115ed9061396b565b80601f01602080910402602001604051908101604052809291908181526020018280546116199061396b565b80156116665780601f1061163b57610100808354040283529160200191611666565b820191906000526020600020905b81548152906001019060200180831161164957829003601f168201915b50505050509080600601805461167b9061396b565b80601f01602080910402602001604051908101604052809291908181526020018280546116a79061396b565b80156116f45780601f106116c9576101008083540402835291602001916116f4565b820191906000526020600020905b8154815290600101906020018083116116d757829003601f168201915b5050505050908060070180546117099061396b565b80601f01602080910402602001604051908101604052809291908181526020018280546117359061396b565b80156117825780601f1061175757610100808354040283529160200191611782565b820191906000526020600020905b81548152906001019060200180831161176557829003601f168201915b5050505050908060080160009054906101000a900460ff16905089565b60006040518061012001604052808a81526020018981526020018881526020018781526020018681526020018581526020018481526020018381526020016000151581525090508060018a6040516117f79190613925565b9081526020016040518091039020600082015181600001908161181a9190613b48565b50602082015181600101556040820151816002015560608201518160030190816118449190613b48565b50608082015181600401908161185a9190613b48565b5060a08201518160050190816118709190613b48565b5060c08201518160060190816118869190613b48565b5060e082015181600701908161189c9190613b48565b506101008201518160080160006101000a81548160ff0219169083151502179055509050506005899080600181540180825580915050600190039060005260206000200160009091909190915090816118f59190613b48565b508060036007548154811061190d5761190c613c1a565b5b906000526020600020906009020160008201518160000190816119309190613b48565b506020820151816001015560408201518160020155606082015181600301908161195a9190613b48565b5060808201518160040190816119709190613b48565b5060a08201518160050190816119869190613b48565b5060c082015181600601908161199c9190613b48565b5060e08201518160070190816119b29190613b48565b506101008201518160080160006101000a81548160ff0219169083151502179055509050506119ed6001600754612a8a90919063ffffffff16565b600781905550505050505050505050565b60075481565b60006040518061014001604052808b81526020018a8152602001898152602001888152602001878152602001868152602001858152602001848152602001838152602001600081525090508060008b604051611a609190613925565b90815260200160405180910390206000820151816000019081611a839190613b48565b5060208201518160010155604082015181600201556060820151816003019081611aad9190613b48565b506080820151816004019081611ac39190613b48565b5060a0820151816005019081611ad99190613b48565b5060c0820151816006019081611aef9190613b48565b5060e0820151816007019081611b059190613b48565b50610100820151816008019081611b1c9190613b48565b50610120820151816009015590505060048a908060018154018082558091505060019003906000526020600020016000909190919091509081611b5f9190613b48565b5080600260065481548110611b7757611b76613c1a565b5b90600052602060002090600a02016000820151816000019081611b9a9190613b48565b5060208201518160010155604082015181600201556060820151816003019081611bc49190613b48565b506080820151816004019081611bda9190613b48565b5060a0820151816005019081611bf09190613b48565b5060c0820151816006019081611c069190613b48565b5060e0820151816007019081611c1c9190613b48565b50610100820151816008019081611c339190613b48565b506101208201518160090155905050611c586001600654612a8a90919063ffffffff16565b60068190555050505050505050505050565b611c72612af3565b600182604051611c829190613925565b908152602001604051809103902060405180610120016040529081600082018054611cac9061396b565b80601f0160208091040260200160405190810160405280929190818152602001828054611cd89061396b565b8015611d255780601f10611cfa57610100808354040283529160200191611d25565b820191906000526020600020905b815481529060010190602001808311611d0857829003601f168201915b505050505081526020016001820154815260200160028201548152602001600382018054611d529061396b565b80601f0160208091040260200160405190810160405280929190818152602001828054611d7e9061396b565b8015611dcb5780601f10611da057610100808354040283529160200191611dcb565b820191906000526020600020905b815481529060010190602001808311611dae57829003601f168201915b50505050508152602001600482018054611de49061396b565b80601f0160208091040260200160405190810160405280929190818152602001828054611e109061396b565b8015611e5d5780601f10611e3257610100808354040283529160200191611e5d565b820191906000526020600020905b815481529060010190602001808311611e4057829003601f168201915b50505050508152602001600582018054611e769061396b565b80601f0160208091040260200160405190810160405280929190818152602001828054611ea29061396b565b8015611eef5780601f10611ec457610100808354040283529160200191611eef565b820191906000526020600020905b815481529060010190602001808311611ed257829003601f168201915b50505050508152602001600682018054611f089061396b565b80601f0160208091040260200160405190810160405280929190818152602001828054611f349061396b565b8015611f815780601f10611f5657610100808354040283529160200191611f81565b820191906000526020600020905b815481529060010190602001808311611f6457829003601f168201915b50505050508152602001600782018054611f9a9061396b565b80601f0160208091040260200160405190810160405280929190818152602001828054611fc69061396b565b80156120135780601f10611fe857610100808354040283529160200191612013565b820191906000526020600020905b815481529060010190602001808311611ff657829003601f168201915b505050505081526020016008820160009054906101000a900460ff1615151515815250509050919050565b6004818154811061204e57600080fd5b9060005260206000200160009150905080546120699061396b565b80601f01602080910402602001604051908101604052809291908181526020018280546120959061396b565b80156120e25780601f106120b7576101008083540402835291602001916120e2565b820191906000526020600020905b8154815290600101906020018083116120c557829003601f168201915b505050505081565b600581815481106120fa57600080fd5b9060005260206000200160009150905080546121159061396b565b80601f01602080910402602001604051908101604052809291908181526020018280546121419061396b565b801561218e5780601f106121635761010080835404028352916020019161218e565b820191906000526020600020905b81548152906001019060200180831161217157829003601f168201915b505050505081565b600281815481106121a657600080fd5b90600052602060002090600a02016000915090508060000180546121c99061396b565b80601f01602080910402602001604051908101604052809291908181526020018280546121f59061396b565b80156122425780601f1061221757610100808354040283529160200191612242565b820191906000526020600020905b81548152906001019060200180831161222557829003601f168201915b5050505050908060010154908060020154908060030180546122639061396b565b80601f016020809104026020016040519081016040528092919081815260200182805461228f9061396b565b80156122dc5780601f106122b1576101008083540402835291602001916122dc565b820191906000526020600020905b8154815290600101906020018083116122bf57829003601f168201915b5050505050908060040180546122f19061396b565b80601f016020809104026020016040519081016040528092919081815260200182805461231d9061396b565b801561236a5780601f1061233f5761010080835404028352916020019161236a565b820191906000526020600020905b81548152906001019060200180831161234d57829003601f168201915b50505050509080600501805461237f9061396b565b80601f01602080910402602001604051908101604052809291908181526020018280546123ab9061396b565b80156123f85780601f106123cd576101008083540402835291602001916123f8565b820191906000526020600020905b8154815290600101906020018083116123db57829003601f168201915b50505050509080600601805461240d9061396b565b80601f01602080910402602001604051908101604052809291908181526020018280546124399061396b565b80156124865780601f1061245b57610100808354040283529160200191612486565b820191906000526020600020905b81548152906001019060200180831161246957829003601f168201915b50505050509080600701805461249b9061396b565b80601f01602080910402602001604051908101604052809291908181526020018280546124c79061396b565b80156125145780601f106124e957610100808354040283529160200191612514565b820191906000526020600020905b8154815290600101906020018083116124f757829003601f168201915b5050505050908060080180546125299061396b565b80601f01602080910402602001604051908101604052809291908181526020018280546125559061396b565b80156125a25780601f10612577576101008083540402835291602001916125a2565b820191906000526020600020905b81548152906001019060200180831161258557829003601f168201915b505050505090806009015490508a565b6000818051602081018201805184825260208301602085012081835280955050505050506000915090508060000180546125eb9061396b565b80601f01602080910402602001604051908101604052809291908181526020018280546126179061396b565b80156126645780601f1061263957610100808354040283529160200191612664565b820191906000526020600020905b81548152906001019060200180831161264757829003601f168201915b5050505050908060010154908060020154908060030180546126859061396b565b80601f01602080910402602001604051908101604052809291908181526020018280546126b19061396b565b80156126fe5780601f106126d3576101008083540402835291602001916126fe565b820191906000526020600020905b8154815290600101906020018083116126e157829003601f168201915b5050505050908060040180546127139061396b565b80601f016020809104026020016040519081016040528092919081815260200182805461273f9061396b565b801561278c5780601f106127615761010080835404028352916020019161278c565b820191906000526020600020905b81548152906001019060200180831161276f57829003601f168201915b5050505050908060050180546127a19061396b565b80601f01602080910402602001604051908101604052809291908181526020018280546127cd9061396b565b801561281a5780601f106127ef5761010080835404028352916020019161281a565b820191906000526020600020905b8154815290600101906020018083116127fd57829003601f168201915b50505050509080600601805461282f9061396b565b80601f016020809104026020016040519081016040528092919081815260200182805461285b9061396b565b80156128a85780601f1061287d576101008083540402835291602001916128a8565b820191906000526020600020905b81548152906001019060200180831161288b57829003601f168201915b5050505050908060070180546128bd9061396b565b80601f01602080910402602001604051908101604052809291908181526020018280546128e99061396b565b80156129365780601f1061290b57610100808354040283529160200191612936565b820191906000526020600020905b81548152906001019060200180831161291957829003601f168201915b50505050509080600801805461294b9061396b565b80601f01602080910402602001604051908101604052809291908181526020018280546129779061396b565b80156129c45780601f10612999576101008083540402835291602001916129c4565b820191906000526020600020905b8154815290600101906020018083116129a757829003601f168201915b505050505090806009015490508a565b60085481565b612a0f60016000836040516129ef9190613925565b908152602001604051809103902060090154612a8a90919063ffffffff16565b600082604051612a1f9190613925565b908152602001604051809103902060090181905550612a4a6001600854612a8a90919063ffffffff16565b6008819055507fdd4c99251f425e725972ff09e5348689020fce09b3b010f8573d992fe79afcf181604051612a7f91906137fa565b60405180910390a150565b60008183612a989190613c78565b905092915050565b604051806101400160405280606081526020016000815260200160008152602001606081526020016060815260200160608152602001606081526020016060815260200160608152602001600081525090565b60405180610120016040528060608152602001600081526020016000815260200160608152602001606081526020016060815260200160608152602001606081526020016000151581525090565b6000604051905090565b600080fd5b600080fd5b600080fd5b600080fd5b6000601f19601f8301169050919050565b7f4e487b7100000000000000000000000000000000000000000000000000000000600052604160045260246000fd5b612ba882612b5f565b810181811067ffffffffffffffff82111715612bc757612bc6612b70565b5b80604052505050565b6000612bda612b41565b9050612be68282612b9f565b919050565b600067ffffffffffffffff821115612c0657612c05612b70565b5b612c0f82612b5f565b9050602081019050919050565b82818337600083830152505050565b6000612c3e612c3984612beb565b612bd0565b905082815260208101848484011115612c5a57612c59612b5a565b5b612c65848285612c1c565b509392505050565b600082601f830112612c8257612c81612b55565b5b8135612c92848260208601612c2b565b91505092915050565b600060208284031215612cb157612cb0612b4b565b5b600082013567ffffffffffffffff811115612ccf57612cce612b50565b5b612cdb84828501612c6d565b91505092915050565b600081519050919050565b600082825260208201905092915050565b60005b83811015612d1e578082015181840152602081019050612d03565b60008484015250505050565b6000612d3582612ce4565b612d3f8185612cef565b9350612d4f818560208601612d00565b612d5881612b5f565b840191505092915050565b6000819050919050565b612d7681612d63565b82525050565b6000610140830160008301518482036000860152612d9a8282612d2a565b9150506020830151612daf6020860182612d6d565b506040830151612dc26040860182612d6d565b5060608301518482036060860152612dda8282612d2a565b91505060808301518482036080860152612df48282612d2a565b91505060a083015184820360a0860152612e0e8282612d2a565b91505060c083015184820360c0860152612e288282612d2a565b91505060e083015184820360e0860152612e428282612d2a565b915050610100830151848203610100860152612e5e8282612d2a565b915050610120830151612e75610120860182612d6d565b508091505092915050565b60006020820190508181036000830152612e9a8184612d7c565b905092915050565b612eab81612d63565b82525050565b6000602082019050612ec66000830184612ea2565b92915050565b600081519050919050565b600082825260208201905092915050565b6000819050602082019050919050565b6000610140830160008301518482036000860152612f168282612d2a565b9150506020830151612f2b6020860182612d6d565b506040830151612f3e6040860182612d6d565b5060608301518482036060860152612f568282612d2a565b91505060808301518482036080860152612f708282612d2a565b91505060a083015184820360a0860152612f8a8282612d2a565b91505060c083015184820360c0860152612fa48282612d2a565b91505060e083015184820360e0860152612fbe8282612d2a565b915050610100830151848203610100860152612fda8282612d2a565b915050610120830151612ff1610120860182612d6d565b508091505092915050565b60006130088383612ef8565b905092915050565b6000602082019050919050565b600061302882612ecc565b6130328185612ed7565b93508360208202850161304485612ee8565b8060005b8581101561308057848403895281516130618582612ffc565b945061306c83613010565b925060208a01995050600181019050613048565b50829750879550505050505092915050565b600060208201905081810360008301526130ac818461301d565b905092915050565b600081519050919050565b600082825260208201905092915050565b6000819050602082019050919050565b60008115159050919050565b6130f5816130e0565b82525050565b60006101208301600083015184820360008601526131198282612d2a565b915050602083015161312e6020860182612d6d565b5060408301516131416040860182612d6d565b50606083015184820360608601526131598282612d2a565b915050608083015184820360808601526131738282612d2a565b91505060a083015184820360a086015261318d8282612d2a565b91505060c083015184820360c08601526131a78282612d2a565b91505060e083015184820360e08601526131c18282612d2a565b9150506101008301516131d86101008601826130ec565b508091505092915050565b60006131ef83836130fb565b905092915050565b6000602082019050919050565b600061320f826130b4565b61321981856130bf565b93508360208202850161322b856130d0565b8060005b85811015613267578484038952815161324885826131e3565b9450613253836131f7565b925060208a0199505060018101905061322f565b50829750879550505050505092915050565b600060208201905081810360008301526132938184613204565b905092915050565b6132a481612d63565b81146132af57600080fd5b50565b6000813590506132c18161329b565b92915050565b6000602082840312156132dd576132dc612b4b565b5b60006132eb848285016132b2565b91505092915050565b600082825260208201905092915050565b600061331082612ce4565b61331a81856132f4565b935061332a818560208601612d00565b61333381612b5f565b840191505092915050565b613347816130e0565b82525050565b6000610120820190508181036000830152613368818c613305565b9050613377602083018b612ea2565b613384604083018a612ea2565b81810360608301526133968189613305565b905081810360808301526133aa8188613305565b905081810360a08301526133be8187613305565b905081810360c08301526133d28186613305565b905081810360e08301526133e68185613305565b90506133f661010083018461333e565b9a9950505050505050505050565b600080600080600080600080610100898b03121561342557613424612b4b565b5b600089013567ffffffffffffffff81111561344357613442612b50565b5b61344f8b828c01612c6d565b98505060206134608b828c016132b2565b97505060406134718b828c016132b2565b965050606089013567ffffffffffffffff81111561349257613491612b50565b5b61349e8b828c01612c6d565b955050608089013567ffffffffffffffff8111156134bf576134be612b50565b5b6134cb8b828c01612c6d565b94505060a089013567ffffffffffffffff8111156134ec576134eb612b50565b5b6134f88b828c01612c6d565b93505060c089013567ffffffffffffffff81111561351957613518612b50565b5b6135258b828c01612c6d565b92505060e089013567ffffffffffffffff81111561354657613545612b50565b5b6135528b828c01612c6d565b9150509295985092959890939650565b60008060008060008060008060006101208a8c03121561358557613584612b4b565b5b60008a013567ffffffffffffffff8111156135a3576135a2612b50565b5b6135af8c828d01612c6d565b99505060206135c08c828d016132b2565b98505060406135d18c828d016132b2565b97505060608a013567ffffffffffffffff8111156135f2576135f1612b50565b5b6135fe8c828d01612c6d565b96505060808a013567ffffffffffffffff81111561361f5761361e612b50565b5b61362b8c828d01612c6d565b95505060a08a013567ffffffffffffffff81111561364c5761364b612b50565b5b6136588c828d01612c6d565b94505060c08a013567ffffffffffffffff81111561367957613678612b50565b5b6136858c828d01612c6d565b93505060e08a013567ffffffffffffffff8111156136a6576136a5612b50565b5b6136b28c828d01612c6d565b9250506101008a013567ffffffffffffffff8111156136d4576136d3612b50565b5b6136e08c828d01612c6d565b9150509295985092959850929598565b600061012083016000830151848203600086015261370e8282612d2a565b91505060208301516137236020860182612d6d565b5060408301516137366040860182612d6d565b506060830151848203606086015261374e8282612d2a565b915050608083015184820360808601526137688282612d2a565b91505060a083015184820360a08601526137828282612d2a565b91505060c083015184820360c086015261379c8282612d2a565b91505060e083015184820360e08601526137b68282612d2a565b9150506101008301516137cd6101008601826130ec565b508091505092915050565b600060208201905081810360008301526137f281846136f0565b905092915050565b600060208201905081810360008301526138148184613305565b905092915050565b6000610140820190508181036000830152613837818d613305565b9050613846602083018c612ea2565b613853604083018b612ea2565b8181036060830152613865818a613305565b905081810360808301526138798189613305565b905081810360a083015261388d8188613305565b905081810360c08301526138a18187613305565b905081810360e08301526138b58186613305565b90508181036101008301526138ca8185613305565b90506138da610120830184612ea2565b9b9a5050505050505050505050565b600081905092915050565b60006138ff82612ce4565b61390981856138e9565b9350613919818560208601612d00565b80840191505092915050565b600061393182846138f4565b915081905092915050565b7f4e487b7100000000000000000000000000000000000000000000000000000000600052602260045260246000fd5b6000600282049050600182168061398357607f821691505b6020821081036139965761399561393c565b5b50919050565b60008190508160005260206000209050919050565b60006020601f8301049050919050565b600082821b905092915050565b6000600883026139fe7fffffffffffffffffffffffffffffffffffffffffffffffffffffffffffffffff826139c1565b613a0886836139c1565b95508019841693508086168417925050509392505050565b6000819050919050565b6000613a45613a40613a3b84612d63565b613a20565b612d63565b9050919050565b6000819050919050565b613a5f83613a2a565b613a73613a6b82613a4c565b8484546139ce565b825550505050565b600090565b613a88613a7b565b613a93818484613a56565b505050565b5b81811015613ab757613aac600082613a80565b600181019050613a99565b5050565b601f821115613afc57613acd8161399c565b613ad6846139b1565b81016020851015613ae5578190505b613af9613af1856139b1565b830182613a98565b50505b505050565b600082821c905092915050565b6000613b1f60001984600802613b01565b1980831691505092915050565b6000613b388383613b0e565b9150826002028217905092915050565b613b5182612ce4565b67ffffffffffffffff811115613b6a57613b69612b70565b5b613b74825461396b565b613b7f828285613abb565b600060209050601f831160018114613bb25760008415613ba0578287015190505b613baa8582613b2c565b865550613c12565b601f198416613bc08661399c565b60005b82811015613be857848901518255600182019150602085019450602081019050613bc3565b86831015613c055784890151613c01601f891682613b0e565b8355505b6001600288020188555050505b505050505050565b7f4e487b7100000000000000000000000000000000000000000000000000000000600052603260045260246000fd5b7f4e487b7100000000000000000000000000000000000000000000000000000000600052601160045260246000fd5b6000613c8382612d63565b9150613c8e83612d63565b9250828201905080821115613ca657613ca5613c49565b5b9291505056fea2646970667358221220b088a0b851bb4fe844f8f334df0dc61fcd38dd161ed0b783a7ccc2bd71d8b90e64736f6c63430008110033",
  "immutableReferences": {},
  "source": "// SPDX-License-Identifier:MIT\npragma solidity ^0.8.2;\n\nimport \"./SafeMath.sol\";\nimport \"./Structure.sol\";\n\ncontract Election is Structure {\n    using SafeMath for uint256;\n\n    // Mapping\n    mapping(string => Candidate) public candidates;\n    mapping(string => Voter) public voters;\n\n    // Arrays\n    Candidate[] public candidateList;\n    Voter[] public voterList;\n    string[] public candidateNames;\n    string[] public voterNames;\n\n    // static variables\n    uint256 public totalCandidate = 0;\n    uint256 public totalVoter = 0;\n    uint256 public voteCount;\n\n    // Event\n    event VoteCast(string candidateName);\n\n    // updators\n    function vote(string memory candidateName) public {\n        candidates[candidateName].voteCount = candidates[candidateName]\n            .voteCount\n            .add(1);\n        voteCount = voteCount.add(1);\n\n        emit VoteCast(candidateName);\n    }\n\n    // setter functions\n    function addCandidate(\n        string memory _name,\n        uint256 _citizenshipNo,\n        uint256 _age,\n        string memory _agenda,\n        string memory _dob,\n        string memory _address,\n        string memory _email,\n        string memory _profile,\n        string memory _partyName\n    ) public {\n        Candidate memory candidate = Candidate({\n            name: _name,\n            citizenshipNo: _citizenshipNo,\n            age: _age,\n            agenda: _agenda,\n            dob: _dob,\n            address_name: _address,\n            email: _email,\n            profile: _profile,\n            partyName: _partyName,\n            voteCount: 0\n        });\n\n        candidates[_name] = candidate;\n        candidateNames.push(_name);\n        candidateList[totalCandidate] = candidate;\n\n        totalCandidate = totalCandidate.add(1);\n    }\n\n    function addVoter(\n        string memory _name,\n        uint256 _citizenshipNo,\n        uint256 _age,\n        string memory _agenda,\n        string memory _dob,\n        string memory _address,\n        string memory _email,\n        string memory _profile\n    ) public {\n        Voter memory voter = Voter({\n            name: _name,\n            citizenshipNo: _citizenshipNo,\n            age: _age,\n            agenda: _agenda,\n            dob: _dob,\n            address_name: _address,\n            email: _email,\n            profile: _profile,\n            voted: false\n        });\n        voters[_name] = voter;\n        voterNames.push(_name);\n        voterList[totalVoter] = voter;\n\n        totalVoter = totalVoter.add(1);\n    }\n\n    // getter functions\n    function getAllCandidates() public view returns (Candidate[] memory) {\n        return candidateList;\n    }\n\n    function getAllVoters() public view returns (Voter[] memory) {\n        return voterList;\n    }\n\n    function getCandidateDetails(string memory name)\n        public\n        view\n        returns (Candidate memory)\n    {\n        return candidates[name];\n    }\n\n    function getVoterDetails(string memory name)\n        public\n        view\n        returns (Voter memory)\n    {\n        return voters[name];\n    }\n}\n",
  "sourcePath": "/Users/parbatlama/Documents/web_projects/DAPP-VOTING-BLOCKCHAIN/smartcontract/contracts/Election.sol",
  "compiler": {
    "name": "solc",
    "version": "0.8.17+commit.8df45f5f.Emscripten.clang"
  },
  "schemaVersion": "3.4.10",
  "updatedAt": "2023-01-31T17:57:21.585Z",
  "devdoc": {
    "kind": "dev",
    "methods": {},
    "version": 1
  },
  "userdoc": {
    "kind": "user",
    "methods": {},
    "version": 1
  }
}